:020000040800F2
:10000000005000205D0B0008F90A0008010B0008F1
:10001000090B0008110B0008190B00080000000074
:10002000000000000000000000000000210B00089C
:100030002D0B000800000000390B0008450B0008DC
:10004000A50B0008A50B0008A50B0008A50B0008D0
:10005000A50B0008A50B0008A50B0008A50B0008C0
:10006000A50B0008A50B0008A50B0008A50B0008B0
:10007000A50B0008A50B0008A50B0008A50B0008A0
:10008000A50B0008A50B0008A50B0008A50B000890
:10009000A50B0008A50B0008A50B0008A50B000880
:1000A000A50B0008A50B0008A50B0008A50B000870
:1000B000A50B0008A50B0008A50B0008A50B000860
:1000C000A50B0008A50B0008A50B0008A50B000850
:1000D000A50B0008A50B0008A50B0008A50B000840
:1000E000A50B0008A50B0008A50B000800000000E8
:1000F0000000000000000000000000000000000000
:0C01000000000000000000005FF808F1A3
:10010C0010B5054C237833B9044B13B10448AFF345
:10011C0000800123237010BD40000020000000006F
:10012C002C23000808B5034B1BB103490348AFF35C
:10013C00008008BD00000000440000202C230008B3
:10014C0080B485B000AF78607B689BB2FB60FB68C5
:10015C009B0AFB60FB68DBB218461437BD4680BCBB
:10016C007047000080B489B000AFF8600B467A602D
:10017C00FB720123FB740023BB744FF0FF33FB6154
:10018C000023BB6120E0FA68BB6913441B78BB7485
:10019C00BB7CFA695340FB6100237B610EE0FB6979
:1001AC00002B05DAFB695A00104B5340FB6102E04F
:1001BC00FB695B00FB617B6901337B617B691F2BF6
:1001CC00EDD9BB690133BB61FB7ABA699A42DAD3C8
:1001DC00FA697B689A4214BF01230023DBB2FB74DB
:1001EC00FB7C18462437BD4680BC7047B71DC10444
:1001FC0080B485B000AF78600023FB737B68B3F1EB
:10020C00006F06D37B68104A934202D80123FB731C
:10021C0014E07B68B3F1005F06D37B680B4A934212
:10022C0002D80223FB7309E07B68094A934205D983
:10023C007B68084A934201D80323FB73FB7B184667
:10024C001437BD4680BC7047FFFF01080000012039
:10025C00FFEFFF1FFFF7FF1F80B588B000AF03460D
:10026C000A46FB711346BB71FB79C3F17F03BB7765
:10027C000023FB7797F90730002B03DBBA79BB7FA0
:10028C009A4205D9FB79FF2B02D00123FB7733E08F
:10029C00FB79FF2B09D10223FB6001233B614FF05B
:1002AC0000637B61BB7FBB610FE00023FB6001231C
:1002BC003B61FB7903F500339B027B61BA79BB7F11
:1002CC00934228BF1346DBB2BB6100F01DFE034610
:1002DC00002B08D107F1080207F10C031146184650
:1002EC0000F0FAFE01E00123FB7700F033FE034639
:1002FC00002B01D00123FB77FB7F18462037BD462E
:10030C0080BD0000B0B586B000AFF860B960134690
:10031C00FB710023FB75FB68B3F1006F27D3FB68FF
:10032C00164A934223D8FB799B087B7500F0ECFDB1
:10033C000023BB7514E0BB7D9B001A46FB68D118EB
:10034C00BB7D9B00BA6813441B6800221C461546F3
:10035C0022462B46022000F067FDBB7D0133BB75A6
:10036C00BA7D7B7D9A42E6D300F0F4FD01E00123D7
:10037C00FB75FB7D18461837BD46B0BDFFFF010865
:10038C0080B584B000AF0346FB71A5233B73FB79AA
:10039C007B7307F10C014FF0FF330222034801F08D
:1003AC0027FD00BF1037BD4680BD00BF6000002098
:1003BC0080B582B000AF7F23FB71F91D4FF0FF3386
:1003CC000122034801F014FD00BF0837BD4680BD73
:1003DC006000002080B586B000AF78607B681B7829
:1003EC000133FB75FB7D043B7A6813441B683B614E
:1003FC00FB7D043BDBB23A6919467868FFF7B2FE25
:10040C000346FB73FB7B002B0DD10120FFF7B8FFDC
:10041C000123BB7307F10E014FF0FF330122054896
:10042C0001F0E6FC01E0FFF7C3FF00BF1837BD4643
:10043C0080BD00BF6000002080B588B000AF786040
:10044C00174A07F1080307CA83E807007B681B7883
:10045C000133FB77FB7F043B7A6813441B68BB6159
:10046C00FB7F043BDBB2BA6919467868FFF77AFE6A
:10047C000346FB75FB7D002B0BD10C20FFF780FF97
:10048C0007F108014FF0FF330C22064801F0B0FCD5
:10049C0001E0FFF78DFF00BF2037BD4680BD00BFD8
:1004AC00442300086000002080B586B000AF78605F
:1004BC007B681B780133FB75FB7D043B7A68134426
:1004CC001B683B61FB7D043BDBB23A6919467868DB
:1004DC00FFF748FE0346FB73FB7B002B12D10C4B42
:1004EC001B689BB2C3F30B039BB2BB810220FFF7CB
:1004FC0047FF07F10C014FF0FF330222054801F0D2
:10050C0077FC01E0FFF754FF00BF1837BD4680BDF4
:10051C00002004E06000002080B586B000AF786059
:10052C007B681B780133FB75FB7D043B7A681344B5
:10053C001B683B61FB7D043BDBB23A69194678686A
:10054C00FFF710FE0346FB73FB7B002B10D10B4B0C
:10055C001B681B0ADBB2BB730120FFF711FF07F10D
:10056C000E014FF0FF330122054801F041FC01E080
:10057C00FFF71EFF00BF1837BD4680BD00F8FF1FF8
:10058C006000002080B588B000AF78607B681B7875
:10059C000133FB77FB7F043B7A6813441B68BB6118
:1005AC00FB7F043BDBB2BA6919467868FFF7DAFDCA
:1005BC000346FB75FB7D002B2BD17B68D3F80230F7
:1005CC003B613869FFF714FE0346FB72FB7A002B84
:1005DC000BD10120FFF7D4FE07F10B014FF0FF33D5
:1005EC0001220F4801F004FC15E00120FFF7C8FEC2
:1005FC0007F10B014FF0FF330122094801F0F8FB22
:10060C003B6943F001033B613B69FB60FB68984726
:10061C0001E0FFF7CDFE00BF2037BD4680BD00BF17
:10062C006000002080B586B000AF78607B681B78D6
:10063C000133FB75FB7D043B7A6813441B683B61FB
:10064C00FB7D043BDBB23A6919467868FFF78AFDFB
:10065C000346FB73FB7B002B17D17B6802331A78A4
:10066C007B6803331B7819461046FFF7F5FD0346EC
:10067C00BB730120FFF784FE07F10E014FF0FF332F
:10068C000122054801F0B4FB01E0FFF791FE00BF29
:10069C001837BD4680BD00BF6000002080B588B013
:1006AC0000AF78607B681B780133FB77FB7F043BE2
:1006BC007A6813441B68BB61FB7F043BDBB2BA69ED
:1006CC0019467868FFF74EFD0346FB75FB7D002B42
:1006DC0048D17B68D3F802303B613869FFF788FD5D
:1006EC000346BB73BB7B002B0BD10120FFF748FEED
:1006FC0007F10E014FF0FF3301221D4801F078FB8A
:10070C0032E01C4B1B78002B15D17B68D3F80230E0
:10071C00194A13603869FFF713FD0346FB73FB7B23
:10072C00C3F17F03DAB2FB7B11461846FFF794FD49
:10073C00104B01221A700120FFF722FE7B68D91D95
:10074C007B6806331B781A463869FFF7DBFD0346D6
:10075C007B7307F10D014FF0FF330122044801F0C8
:10076C0047FB01E0FFF724FE00BF2037BD4680BDEC
:10077C00600000205C0000200000002080B483B0EA
:10078C0000AF786000BF0C37BD4680BC704780B4AA
:10079C0083B000AF786000BF0C37BD4680BC70479B
:1007AC0080B483B000AF786000BF0C37BD4680BC0E
:1007BC00704780B483B000AF786000BF0C37BD4683
:1007CC0080BC704780B483B000AF786000BF0C373A
:1007DC00BD4680BC7047000080B586B000AF786025
:1007EC000120FFF7CDFD0123FB7207F10B014FF048
:1007FC00FF3301220C4801F0FBFA0C4B00221A705B
:10080C000B4B1B681B687B617B6983F30888084B67
:10081C001B6804331B683B613B69FB60FB689847B2
:10082C0000BF1837BD4680BD600000205C00002072
:10083C000000002080B5C0B000AF00F0AFF900F0B0
:10084C0055F800F0B9F800F08DF807F58073A3F5B2
:10085C00807300221A600433FB220021184601F039
:10086C0033FD3B46FF220021184601F02DFD394691
:10087C004FF0FF3301221B4801F045FB07F5807355
:10088C00A3F580731B781A463B46591C4FF0FF3377
:10089C00144801F038FB07F58073A3F580735B787F
:1008AC00502B13D907F58073A3F580735B785C2B01
:1008BC000CD807F58073A3F580735B78513B0A4A1B
:1008CC0052F823303A46104698470AE007F58073F1
:1008DC00A3F580735B785D2BC3D13B461846FFF7BD
:1008EC007BFFBEE7600000200400002080B590B0C4
:1008FC0000AF07F1180328220021184601F0E4FC90
:10090C003B1D00221A605A609A60DA601A61022359
:10091C00BB610123BB621023FB6200237B6307F1E5
:10092C001803184600F004FE0346002B01D000F01B
:10093C0059F80F237B600023BB600023FB6000236E
:10094C003B6100237B613B1D0021184601F072F8CE
:10095C000346002B01D000F045F800BF4037BD46E0
:10096C0080BD000080B500AF114B124A1A60104BCD
:10097C004FF4E1325A600E4B00229A600C4B00226D
:10098C00DA600B4B00221A61094B0C225A61084B9E
:10099C0000229A61064B0022DA61054801F0D8F971
:1009AC000346002B01D000F01DF800BF80BD00BF36
:1009BC00600000200038014080B483B000AF084BC9
:1009CC009B69074A43F004039361054B9B6903F051
:1009DC0004037B607B6800BF0C37BD4680BC70474E
:1009EC000010024080B400AF72B600BF00BFFDE73C
:1009FC0080B485B000AF154B9B69144A43F00103DA
:100A0C009361124B9B6903F00103BB60BB680F4BF6
:100A1C00DB690E4A43F08053D3610C4BDB6903F066
:100A2C0080537B607B680A4B5B68FB60FB6823F040
:100A3C00E063FB60FB6843F00073FB60044AFB68F7
:100A4C00536000BF1437BD4680BC70470010024095
:100A5C000000014080B588B000AF786007F110034A
:100A6C0000221A605A609A60DA607B681B681C4A24
:100A7C00934231D11B4B9B691A4A43F480439361D7
:100A8C00184B9B6903F48043FB60FB68154B9B6917
:100A9C00144A43F004039361124B9B6903F0040363
:100AAC00BB60BB684FF400733B6102237B61032383
:100ABC00FB6107F1100319460B4800F0B5FB4FF42E
:100ACC0080633B6100237B610023BB6107F1100352
:100ADC001946054800F0A8FB00BF2037BD4680BD75
:100AEC0000380140001002400008014080B400AF03
:100AFC0000BFFDE780B400AF00BFFDE780B400AFDE
:100B0C0000BFFDE780B400AF00BFFDE780B400AFCD
:100B1C0000BFFDE780B400AF00BFBD4680BC70478E
:100B2C0080B400AF00BFBD4680BC704780B400AF3E
:100B3C0000BFBD4680BC704780B500AF00F074F8B4
:100B4C0000BF80BD80B400AF00BFBD4680BC704705
:100B5C00FFF7F8FF0B480C490C4A002302E0D4586D
:100B6C00C4500433C4188C42F9D3094A094C0023ED
:100B7C0001E013600432A242FBD301F0ADFBFFF79E
:100B8C0059FE70470000002040000020842300081C
:100B9C0040000020D0000020FEE7000080B500AF30
:100BAC00084B1B68074A43F010031360032000F046
:100BBC0007F90F2000F008F8FFF71AFF002318467A
:100BCC0080BD00BF0020024080B582B000AF7860CD
:100BDC00124B1A68124B1B7819464FF47A73B3FBFD
:100BEC00F1F3B2FBF3F3184600F011F90346002BB6
:100BFC0001D001230EE07B680F2B0AD80022796804
:100C0C004FF0FF3000F0E7F8064A7B6813600023D2
:100C1C0000E0012318460837BD4680BD3400002093
:100C2C003C0000203800002080B400AF054B1B783E
:100C3C001A46054B1B681344034A136000BFBD469C
:100C4C0080BC70473C000020A800002080B400AF9E
:100C5C00024B1B681846BD4680BC7047A80000209C
:100C6C0080B485B000AF78607B6803F00703FB604D
:100C7C000C4BDB68BB60BA684FF6FF031340BB60DC
:100C8C00FB681A02BB68134343F0BF6343F40033A1
:100C9C00BB60044ABB68D36000BF1437BD4680BC40
:100CAC00704700BF00ED00E080B400AF044BDB6880
:100CBC001B0A03F007031846BD4680BC704700BFF3
:100CCC0000ED00E080B483B000AF03463960FB71E7
:100CDC0097F90730002B0ADB3B68DAB20C4997F91D
:100CEC0007301201D2B20B4483F800230AE03B68B0
:100CFC00DAB20849FB7903F00F03043B1201D2B2BC
:100D0C000B441A7600BF0C37BD4680BC704700BF41
:100D1C0000E100E000ED00E080B489B000AFF860C5
:100D2C00B9607A60FB6803F00703FB61FB69C3F1F0
:100D3C000703042B28BF0423BB61FB690433062B78
:100D4C0002D9FB69033B00E000237B614FF0FF32CB
:100D5C00BB6902FA03F3DA43BB681A407B699A4019
:100D6C004FF0FF317B6901FA03F3D9437B680B40E9
:100D7C00134318462437BD4680BC704780B582B0FB
:100D8C0000AF78607B68013BB3F1807F01D3012316
:100D9C000FE00A4A7B68013B53600F214FF0FF3094
:100DAC00FFF790FF054B00229A60044B07221A6054
:100DBC00002318460837BD4680BD00BF10E000E098
:100DCC0080B582B000AF78607868FFF749FF00BF4C
:100DDC000837BD4680BD80B586B000AF0346B9600C
:100DEC007A60FB7300237B61FFF75EFF78617A68A2
:100DFC00B9687869FFF790FF024697F90F301146F2
:100E0C001846FFF75FFF00BF1837BD4680BD80B5A1
:100E1C0082B000AF78607868FFF7B0FF03461846E1
:100E2C000837BD4680BD0000F0B587B000AFF86054
:100E3C00B960C7E900230123FB750023BB750023B0
:100E4C007B752F4B1B7E012B01D1022354E02C4BC5
:100E5C0001221A764CF2503000F0A8F80346FB75CC
:100E6C00FB7D002B44D1FB68012B02D101237B7548
:100E7C0007E0FB68022B02D102237B7501E00423FF
:100E8C007B750023BB752DE0BB7D5A00BB6802EB64
:100E9C00030CBB7D1901D7E90023C1F12006A1F198
:100EAC00200022FA01F403FA06F6344323FA00F088
:100EBC00044323FA01F5A3B21946604600F05AF830
:100ECC004CF2503000F072F80346FB750D4B1B6969
:100EDC000C4A23F001031361FB7D002B07D1BB7D72
:100EEC000133BB75BA7D7B7D9A42CDD300E000BF48
:100EFC00034B00221A76FB7D18461C37BD46F0BD0D
:100F0C00B00000200020024080B483B000AF00236A
:100F1C00FB710D4B1B6903F08003002B0DD00A4BAA
:100F2C000A4A5A60084B0A4A5A60074B1B6903F07D
:100F3C008003002B01D00123FB71FB7918460C3781
:100F4C00BD4680BC704700BF0020024023016745AE
:100F5C00AB89EFCD80B400AF054B1B69044A43F05D
:100F6C008003136100231846BD4680BC704700BF48
:100F7C000020024080B483B000AF78600B467B80C9
:100F8C00084B0022DA61084B1B69074A43F0010346
:100F9C0013617B687A881A8000BF0C37BD4680BC11
:100FAC00704700BFB00000200020024080B584B024
:100FBC0000AF7860FFF74AFEF86010E07B68B3F191
:100FCC00FF3F0CD07B68002B07D0FFF73FFE02469B
:100FDC00FB68D31A7A689A4201D2032325E0154B99
:100FEC00DB6803F00103002BE8D1124BDB6803F044
:100FFC002003002B02D00F4B2022DA600D4BDB6854
:10100C0003F01003002B0BD10A4BDB6903F0010337
:10101C00002B05D1074BDB6803F00403002B03D036
:10102C0000F00AF8012300E0002318461037BD46F3
:10103C0080BD00BF0020024080B483B000AF00230D
:10104C007B60234BDB6803F01003002B09D0214B92
:10105C00DB6943F002031F4AD3617B6843F0100342
:10106C007B601B4BDB6803F00403002B09D0194B8E
:10107C00DB6943F00103174AD3617B6843F0040337
:10108C007B60134BDB6903F00103002B0BD0114B7E
:10109C00DB6943F004030F4AD3610D4BDB690C4A47
:1010AC0023F00103D3617B6840F20112934206D115
:1010BC00074BDB69064A23F00103D36102E0044AC3
:1010CC007B68D36000BF0C37BD4680BC704700BF47
:1010DC0000200240B000002080B584B000AF7860E2
:1010EC0039600123FB730023BB602F4B1B7E012B4C
:1010FC0001D1022353E02C4B01221A767B681B682A
:10110C00022B16D14CF25030FFF750FF0346002B48
:10111C0041D1012000F04CF84CF25030FFF746FF63
:10112C000346FB73214B1B69204A23F00403136114
:10113C0031E04CF25030FFF739FF0346002B2AD137
:10114C003B684FF0FF321A607B689B68BB6019E00C
:10115C00B86800F049F84CF25030FFF727FF03460F
:10116C00FB73124B1B69114A23F002031361FB7BC7
:10117C00002B03D03B68BA681A600CE0BB6803F51F
:10118C008063BB607B68DB689A027B689B68134456
:10119C00BA689A42DCD3044B00221A76FB7B1846C1
:1011AC001037BD4680BD00BFB000002000200240BB
:1011BC0080B483B000AF7860094B0022DA61094B30
:1011CC001B69084A43F004031361064B1B69054A6B
:1011DC0043F04003136100BF0C37BD4680BC704721
:1011EC00B00000200020024080B483B000AF7860D3
:1011FC000B4B0022DA610B4B1B690A4A43F00203CA
:10120C001361084A7B685361064B1B69054A43F01E
:10121C004003136100BF0C37BD4680BC704700BF54
:10122C00B00000200020024080B48BB000AF78608A
:10123C00396000237B6200233B6269E101227B6AF7
:10124C0002FA03F3FB613B681B68FA691340BB614C
:10125C00BA69FB699A4240F058813B685B689A4ACC
:10126C0093425ED0984A934275D8984A934258D08C
:10127C00964A93426FD8964A934252D0944A9342DC
:10128C0069D8944A93424CD0924A934263D8924A7A
:10129C00934246D0904A93425DD8122B2AD8122BF7
:1012AC0059D801A252F823F02F1300080913000893
:1012BC001B1300085D130008631300086313000878
:1012CC00631300086313000863130008631300081A
:1012DC00631300086313000863130008631300080A
:1012EC00631300086313000863130008111300084C
:1012FC0025130008794A934213D02CE03B68DB6835
:10130C003B6229E03B68DB6804333B6224E03B68CA
:10131C00DB6808333B621FE03B68DB680C333B62E5
:10132C001AE03B689B68002B02D104233B6213E05C
:10133C003B689B68012B05D108233B627B68FA69EB
:10134C001A6109E008233B627B68FA695A6103E081
:10135C0000233B6200E000BFBB69FF2B01D87B6818
:10136C0001E07B6804337B61BB69FF2B02D87B6A8D
:10137C009B0002E07B6A083B9B003B617B691A681F
:10138C000F213B6901FA03F3DB431A40396A3B69CD
:10139C0001FA03F31A437B691A603B685B6803F03C
:1013AC008053002B00F0B1804D4B9B694C4A43F0AD
:1013BC00010393614A4B9B6903F00103BB60BB685B
:1013CC00484A7B6A9B08023352F82330FB607B6AE5
:1013DC0003F003039B000F2202FA03F3DB43FA68CA
:1013EC001340FB607B68404A934213D07B683F4AB2
:1013FC0093420DD07B683E4A934207D07B683D4AAE
:10140C00934201D1032306E0042304E0022302E00B
:10141C00012300E000237A6A02F003029200934059
:10142C00FA681343FB602F497B6A9B080233FA6806
:10143C0041F823203B685B6803F48013002B06D033
:10144C002D4B9A682C49BB6913438B6006E02A4BE1
:10145C009A68BB69DB43284913408B603B685B6827
:10146C0003F40013002B06D0234BDA682249BB6926
:10147C001343CB6006E0204BDA68BB69DB431E49A3
:10148C001340CB603B685B6803F40033002B06D041
:10149C00194B5A681849BB6913434B6006E0164B4D
:1014AC005A68BB69DB43144913404B603B685B686B
:1014BC0003F48033002B21D00F4B1A680E49BB6903
:1014CC0013430B6021E000BF00003210000031100C
:1014DC00000022100000211000001210000011105A
:1014EC00001002400000014000080140000C0140C7
:1014FC000010014000140140000401400B4B1A681D
:10150C00BB69DB43094913400B607B6A01337B6287
:10151C003B681A687B6A22FA03F3002B7FF48EAEC9
:10152C0000BF00BF2C37BD4680BC70470004014093
:10153C0080B586B000AF78607B68002B01D10123A9
:10154C0072E27B681B6803F00103002B00F08780BC
:10155C00924B5B6803F00C03042B0CD08F4B5B6835
:10156C0003F00C03082B12D18C4B5B6803F4803313
:10157C00B3F5803F0BD1894B1B6803F40033002B70
:10158C006CD07B685B68002B68D101234CE27B68D4
:10159C005B68B3F5803F06D1804B1B687F4A43F4F0
:1015AC00803313602EE07B685B68002B0CD17B4B87
:1015BC001B687A4A23F480331360784B1B68774A94
:1015CC0023F4802313601DE07B685B68B3F5A02FC8
:1015DC000CD1724B1B68714A43F4802313606F4B20
:1015EC001B686E4A43F4803313600BE06B4B1B6833
:1015FC006A4A23F480331360684B1B68674A23F4F0
:10160C00802313607B685B68002B13D0FFF71EFBF5
:10161C00386108E0FFF71AFB02463B69D31A642BCA
:10162C0001D9032300E25D4B1B6803F40033002B4C
:10163C00F0D014E0FFF70AFB386108E0FFF706FB77
:10164C0002463B69D31A642B01D90323ECE1534BBB
:10165C001B6803F40033002BF0D100E000BF7B6863
:10166C001B6803F00203002B63D04C4B5B6803F048
:10167C000C03002B0BD0494B5B6803F00C03082BBD
:10168C001CD1464B5B6803F48033002B16D1434BC3
:10169C001B6803F00203002B05D07B681B69012B30
:1016AC0001D00123C0E13D4B1B6823F0F8027B689D
:1016BC005B69DB00394913430B603AE07B681B69BB
:1016CC00002B20D0364B01221A60FFF7BFFA38618D
:1016DC0008E0FFF7BBFA02463B69D31A022B01D98B
:1016EC000323A1E12D4B1B6803F00203002BF0D068
:1016FC002A4B1B6823F0F8027B685B69DB002749E7
:10170C0013430B6015E0264B00221A60FFF79EFA7C
:10171C00386108E0FFF79AFA02463B69D31A022BAC
:10172C0001D9032380E11D4B1B6803F00203002B3E
:10173C00F0D17B681B6803F00803002B3AD07B6860
:10174C009B69002B19D0174B01221A60FFF77EFA08
:10175C00386108E0FFF77AFA02463B69D31A022B8C
:10176C0001D9032360E10D4B5B6A03F00203002BEC
:10177C00F0D0012000F0CEFA1CE00A4B00221A60D7
:10178C00FFF764FA38610FE0FFF760FA02463B6935
:10179C00D31A022B08D9032346E100BF00100240E4
:1017AC000000424280044242924B5B6A03F0020307
:1017BC00002BE9D17B681B6803F00403002B00F0BD
:1017CC00A6800023FB758B4BDB6903F08053002B49
:1017DC000DD1884BDB69874A43F08053D361854B2D
:1017EC00DB6903F08053BB60BB680123FB75824B44
:1017FC001B6803F48073002B18D17F4B1B687E4A47
:10180C0043F480731360FFF721FA386108E0FFF7A7
:10181C001DFA02463B69D31A642B01D9032303E159
:10182C00754B1B6803F48073002BF0D07B68DB686E
:10183C00012B06D16F4B1B6A6E4A43F001031362F6
:10184C002DE07B68DB68002B0CD16A4B1B6A694A64
:10185C0023F001031362674B1B6A664A23F00403EF
:10186C0013621CE07B68DB68052B0CD1614B1B6A97
:10187C00604A43F0040313625E4B1B6A5D4A43F0FB
:10188C00010313620BE05B4B1B6A5A4A23F0010302
:10189C001362584B1B6A574A23F0040313627B688C
:1018AC00DB68002B15D0FFF7D1F938610AE0FFF7A0
:1018BC00CDF902463B69D31A41F28832934201D9E1
:1018CC000323B1E04B4B1B6A03F00203002BEED059
:1018DC0014E0FFF7BBF938610AE0FFF7B7F90246ED
:1018EC003B69D31A41F28832934201D903239BE01E
:1018FC00404B1B6A03F00203002BEED1FB7D012B46
:10190C0005D13C4BDB693B4A23F08053D3617B68A8
:10191C00DB69002B00F08780364B5B6803F00C030F
:10192C00082B61D07B68DB69022B46D1334B00223C
:10193C001A60FFF78BF9386108E0FFF787F9024668
:10194C003B69D31A022B01D903236DE0294B1B6889
:10195C0003F00073002BF0D17B681B6AB3F5803F5A
:10196C0008D1244B5B6823F400327B689B682149C7
:10197C0013434B601F4B5B6823F474127B68196A2A
:10198C007B685B6A0B431B4913434B601B4B012267
:10199C001A60FFF75BF9386108E0FFF757F9024668
:1019AC003B69D31A022B01D903233DE0114B1B6871
:1019BC0003F00073002BF0D035E0104B00221A60BE
:1019CC00FFF744F9386108E0FFF740F902463B693C
:1019DC00D31A022B01D9032326E0064B1B6803F014
:1019EC000073002BF0D11EE07B68DB69012B07D163
:1019FC00012319E0001002400070004060004242D8
:101A0C000B4B5B68FB60FB6803F480327B681B6AE2
:101A1C009A4206D1FB6803F470127B685B6A9A42A7
:101A2C0001D0012300E0002318461837BD4680BDC5
:101A3C000010024080B584B000AF786039607B68DC
:101A4C00002B01D10123D0E06A4B1B6803F0070384
:101A5C003A689A4210D9674B1B6823F00702654914
:101A6C003B6813430B60634B1B6803F007033A6836
:101A7C009A4201D00123B8E07B681B6803F0020393
:101A8C00002B20D07B681B6803F00403002B05D0CF
:101A9C00594B5B68584A43F4E06353607B681B689E
:101AAC0003F00803002B05D0534B5B68524A43F4F8
:101ABC0060535360504B5B6823F0F0027B689B686B
:101ACC004D4913434B607B681B6803F00103002BEB
:101ADC0040D07B685B68012B07D1474B1B6803F434
:101AEC000033002B15D101237FE07B685B68022B50
:101AFC0007D1414B1B6803F00073002B09D1012364
:101B0C0073E03D4B1B6803F00203002B01D1012352
:101B1C006BE0394B5B6823F003027B685B683649EA
:101B2C0013434B60FFF792F8F8600AE0FFF78EF86A
:101B3C000246FB68D31A41F28832934201D903233F
:101B4C0053E02D4B5B6803F00C027B685B689B00D9
:101B5C009A42EBD1274B1B6803F007033A689A4271
:101B6C0010D2244B1B6823F0070222493B68134315
:101B7C000B60204B1B6803F007033A689A4201D0B4
:101B8C00012332E07B681B6803F00403002B08D0B0
:101B9C00194B5B6823F4E0627B68DB6816491343DE
:101BAC004B607B681B6803F00803002B09D0124BB9
:101BBC005B6823F460527B681B69DB000E4913439E
:101BCC004B6000F021F802460B4B5B681B0903F0DD
:101BDC000F030A49CB5C22FA03F3094A1360094B41
:101BEC001B681846FEF7F0FF002318461037BD4659
:101BFC0080BD00BF002002400010024050230008AE
:101C0C00340000203800002080B487B000AF0023DF
:101C1C00FB600023BB6000237B6100237B600023FF
:101C2C003B611E4B5B68FB60FB6803F00C03042BF1
:101C3C0002D0082B03D027E0194B3B6127E0FB684F
:101C4C009B0C03F00F03174AD35C7B60FB6803F417
:101C5C008033002B10D0114B5B685B0C03F001033D
:101C6C00114AD35CBB607B680D4A03FB02F2BB6874
:101C7C00B2FBF3F37B6104E07B680C4A02FB03F3D9
:101C8C007B617B693B6102E0054B3B6100BF3B69BB
:101C9C0018461C37BD4680BC704700BF0010024080
:101CAC0000127A00682300087823000800093D0020
:101CBC0080B400AF024B1B681846BD4680BC704711
:101CCC003400002080B500AFFFF7F2FF0246054B51
:101CDC005B681B0A03F007030349CB5C22FA03F38E
:101CEC00184680BD001002406023000880B500AF8C
:101CFC00FFF7DEFF0246054B5B68DB0A03F00703C8
:101D0C000349CB5C22FA03F3184680BD0010024055
:101D1C006023000880B485B000AF78600A4B1B6864
:101D2C000A4AA2FB03235B0A7A6802FB03F3FB60FB
:101D3C0000BFFB685A1EFA60002BF9D100BF00BF30
:101D4C001437BD4680BC704734000020D34D621060
:101D5C0080B582B000AF78607B68002B01D1012385
:101D6C0042E07B6893F84130DBB2002B06D17B68F4
:101D7C00002283F840207868FEF76CFE7B682422F2
:101D8C0083F841207B681B68DA687B681B6822F447
:101D9C000052DA60786800F009FA7B681B681A69EF
:101DAC007B681B6822F490421A617B681B685A6935
:101DBC007B681B6822F02A025A617B681B68DA6810
:101DCC007B681B6842F40052DA607B6800225A641C
:101DDC007B68202283F841207B68202283F84220F4
:101DEC007B6800225A63002318460837BD4680BD25
:101DFC0080B58AB002AFF860B9603B601346FB80D7
:101E0C0000237B61FB6893F84130DBB2202B75D14A
:101E1C00BB68002B02D0FB88002B01D101236EE0A4
:101E2C00FB6800225A64FB68212283F84120FEF7EC
:101E3C000DFF7861FB68FA889A84FB68FA88DA846B
:101E4C00FB689B68B3F5805F08D1FB681B69002BAE
:101E5C0004D10023FB61BB68BB6103E0BB68FB6181
:101E6C000023BB612EE03B6800937B69002280213C
:101E7C00F86800F0DFF80346002B05D0FB68202241
:101E8C0083F8412003233AE0FB69002B0BD1BB699B
:101E9C001B881A46FB681B68C2F308025A60BB69B0
:101EAC000233BB6107E0FB691A78FB681B685A6058
:101EBC00FB690133FB61FB68DB8C9BB2013B9AB283
:101ECC00FB68DA84FB68DB8C9BB2002BCBD13B68C4
:101EDC0000937B6900224021F86800F0ABF80346C0
:101EEC00002B05D0FB68202283F84120032306E059
:101EFC00FB68202283F84120002300E002231846CF
:101F0C002037BD4680BD80B58AB002AFF860B9609D
:101F1C003B601346FB8000237B61FB6893F84230E7
:101F2C00DBB2202B40F08180BB68002B02D0FB88F9
:101F3C00002B01D1012379E0FB6800225A64FB6875
:101F4C00222283F84220FB6800221A63FEF77EFEF1
:101F5C007861FB68FA889A85FB68FA88DA85FB68F1
:101F6C009B68B3F5805F08D1FB681B69002B04D11B
:101F7C000023FB61BB68BB6103E0BB68FB61002312
:101F8C00BB6147E03B6800937B6900222021F86825
:101F9C0000F050F80346002B05D0FB68202283F894
:101FAC004220032342E0FB69002B0CD1FB681B6829
:101FBC005B689BB2C3F308039AB2BB691A80BB6916
:101FCC000233BB611FE0FB689B68B3F5805F07D0F1
:101FDC00FB689B68002B0AD1FB681B69002B06D1A0
:101FEC00FB681B685B68DAB2FB691A7008E0FB6877
:101FFC001B685B68DBB203F07F03DAB2FB691A7013
:10200C00FB690133FB61FB68DB8D9BB2013B9AB230
:10201C00FB68DA85FB68DB8D9BB2002BB2D1FB68C9
:10202C00202283F84220002300E0022318462037A8
:10203C00BD4680BD80B586B000AFF860B9603B602E
:10204C001346FB713BE03B6AB3F1FF3F37D0FEF721
:10205C00FDFD02463B68D31A3A6A9A4202D33B6AA8
:10206C00002B01D103233AE0FB681B68DB6803F00B
:10207C000403002B23D0BB68802B20D0BB68402BE3
:10208C001DD0FB681B681B6803F00803082B16D1D6
:10209C0000237B61FB681B681B687B61FB681B680A
:1020AC005B687B617B69F86800F01DF8FB680822AF
:1020BC005A64FB68002283F8402001230FE0FB6880
:1020CC001B681A68BB681340BA689A420CBF01239C
:1020DC000023DBB21A46FB799A42B4D0002318468F
:1020EC001837BD4680BD80B495B000AF78607B6872
:1020FC001B680C337B637B6B53E8003F3B633B6B90
:10210C0023F49073FB647B681B680C33FA6C3A64A1
:10211C00FB63F96B3A6C41E80023BB63BB6B002B90
:10212C00E5D17B681B6814333B623B6A53E8003F84
:10213C00FB61FB6923F00103BB647B681B681433F0
:10214C00BA6CFA62BB62B96AFA6A41E800237B6234
:10215C007B6A002BE5D17B681B6B012B19D17B684B
:10216C001B680C33FB60FB6853E8003FBB60BB682B
:10217C0023F010037B647B681B680C337A6CBA61A8
:10218C007B617969BA6941E800233B613B69002BAB
:10219C00E5D17B68202283F842207B6800221A63F9
:1021AC0000BF5437BD4680BC7047000080B584B07A
:1021BC0000AF78607B681B681B6923F440517B6817
:1021CC00DA687B681B680A431A617B689A687B68CB
:1021DC001B691A437B685B691343BB607B681B6894
:1021EC00DB6823F4B05323F00C037A681268B968E7
:1021FC000B43D3607B681B685B6923F440717B687D
:10220C009A697B681B680A435A617B681B682C4A75
:10221C00934203D1FFF76AFDF86002E0FFF752FD2D
:10222C00F860FA6813469B0013449A001A447B68C2
:10223C005B689B00B2FBF3F3224AA2FB03235B090E
:10224C001901FA6813469B0013449A001A447B68E0
:10225C005B689B00B2FBF3F21A4BA3FB02035B0916
:10226C00642000FB03F3D31A1B013233154AA2FB83
:10227C0003235B0903F0F0031944FA6813469B002F
:10228C0013449A001A447B685B689B00B2FBF3F220
:10229C000C4BA3FB02035B09642000FB03F3D31A72
:1022AC001B013233074AA2FB03235B0903F00F0225
:1022BC007B681B680A449A6000BF1037BD4680BD1E
:1022CC00003801401F85EB5103460244934200D174
:1022DC00704703F8011BF9E770B500260C4D0D4C47
:1022EC00641BA410A64209D100F01AF800260A4D6E
:1022FC000A4C641BA410A64205D170BD55F8043BD2
:10230C0098470136EEE755F8043B98470136F2E75B
:10231C007C2300087C2300087C2300088023000811
:10232C00F8B500BFF8BC08BC9E467047F8B500BFB6
:08233C00F8BC08BC9E46704786
:102344005152535455565758595A5B5C000000007B
:102354000000000001020304060708090000000051
:102364000102030402030405060708090A0B0C0D05
:082374000E0F10100102000021
:04237C003101000823
:042380000D01000843
:1023840000240008E103000845040008B50400081F
:10239400250500089105000831060008A906000873
:1023A400890700089B070008AD070008BF0700085D
:1023B400D107000800127A0010000000010000009C
:0400000508000B5D87
:00000001FF
